:020000040800F2
:100000002008002065010008D92D0008B527000848
:1000100000000000000000000000000000000000E0
:10002000000000000000000000000000853400080F
:100030000000000000000000DB2D0008AD360008C5
:100040007701000800000000770100087701000830
:1000500077010008770100085510000861100008BA
:100060000000000077010008770100087701000810
:100070007701000877010008770100080000000000
:100080005137000800000000000000007701000860
:1000900000000000770100087701000877010008E0
:1000A000770100087701000877010008794400080B
:1000B00077010008000000000000000000000000C0
:1000C00000F002F800F03EF80CA030C80838241800
:1000D0002D18A246671EAB4654465D46AC4201D180
:1000E00000F030F87E460F3E0FCCB6460126334274
:1000F00000D0FB1AA246AB463343184744460000E3
:1001000064460000103A02D378C878C1FAD8520782
:1001100001D330C830C101D504680C6070470000BD
:100120000023002400250026103A01D378C1FBD813
:10013000520700D330C100D50B6070471FB51FBDFB
:1001400010B510BD00F0FAF81146FFF7F7FF04F004
:1001500007FA00F012F903B4FFF7F2FF03BC00F056
:1001600019F900000748804707480047FEE7FEE707
:10017000FEE7FEE7FEE7FEE704480549054A064BB1
:10018000704700001F370008C1000008200200204F
:1001900020080020200400202004002001E004C0EA
:1001A000091F0429FBD28B0701D50280801CC907D7
:1001B00000D00270704700290BD0C30702D0027034
:1001C000401C491E022904D3830702D50280801CEB
:1001D000891EE3E70022EEE70022DFE700220309A1
:1001E0008B422CD3030A8B4211D300239C464EE052
:1001F00003460B433CD4002243088B4231D303090E
:100200008B421CD3030A8B4201D394463FE0C309BF
:100210008B4201D3CB01C01A524183098B4201D3D7
:100220008B01C01A524143098B4201D34B01C01AC2
:10023000524103098B4201D30B01C01A5241C3083A
:100240008B4201D3CB00C01A524183088B4201D3A9
:100250008B00C01A524143088B4201D34B00C01A95
:100260005241411A00D201465241104670475DE0AA
:10027000CA0F00D04942031000D34042534000222D
:100280009C4603098B422DD3030A8B4212D3FC22D6
:10029000890112BA030A8B420CD3890192118B4255
:1002A00008D3890192118B4204D389013AD092116B
:1002B00000E08909C3098B4201D3CB01C01A524126
:1002C00083098B4201D38B01C01A524143098B42EF
:1002D00001D34B01C01A524103098B4201D30B01D8
:1002E000C01A5241C3088B4201D3CB00C01A5241FD
:1002F00083088B4201D38B00C01A5241D9D24308E4
:100300008B4201D34B00C01A5241411A00D2014620
:10031000634652415B10104601D34042002B00D58A
:100320004942704763465B1000D3404201B500204C
:10033000C046C04602BD704770477047754600F022
:1003400025F8AE46050069465346C008C0008546FC
:1003500018B020B5FFF710FF60BC00274908B6466B
:100360000026C0C5C0C5C0C5C0C5C0C5C0C5C0C5C4
:10037000C0C5403D49008D46704710B50446C04693
:10038000C0462046FFF7E7FE10BD0000004870475A
:10039000C001002001491820ABBEFEE72600020084
:1003A0007047000070B51A4900200A464876203A86
:1003B000D3790C4620343B2B11D9D071237B5B1CA5
:1003C0005BB223733B2B0ADD2073E37A5B1C5DB2C7
:1003D000E5728B7C5B1C8B74182D00DDE07250780D
:1003E000012814D103F032F90B2020560A21FFF71F
:1003F000FFFE084D28736873A973E9730C2020561B
:100400000A21FFF7F5FE28746874A974E97470BDB9
:10041000840100204C010020024901480862704715
:10042000A50300082800002070B5154C1549206868
:100430000525401C2D072060884204D20122082196
:10044000284600F08CFF0F4920680E4EC943401823
:10045000761EB04204D200220821284600F07FFF19
:10046000094920684018B04203D20821284600F00C
:100470006EFF06492068884201D90020206070BDC7
:100480001C000020409C00007FC7FEFFC0D401007C
:1004900010B50248007802F0DDFD10BD8401002097
:1004A000F8B5002003F03CF9442003F039F9F94E87
:1004B000F94FB07901282DD000F070FD304620387A
:1004C000427EF64801462031012A3A79805CFA7969
:1004D000895C25D04018C1B2C32003F0B7F9EF49B9
:1004E000B8791631085CED4A797A3432515C40189B
:1004F000401CC1B2C42003F0A9F9E848E54C2A30F9
:10050000B27801461E3100252034002A0BD0012A82
:100510004BD042E002F0DAF9942003F001F9ECE765
:100520004018401CD7E7327A002A7A780AD013465E
:100530000F3B0F2B1FD23A7A805CFA7A895C401805
:10054000401C1FE01346643B642B06D23A7A805C61
:10055000FA7A895C4018401C06E0642A09D23A7A8B
:10056000805CFA7A895C4018C1B2C52003F06EF94C
:1005700013E07D7011E00F2A09D23A7A805CFA7A92
:10058000895C4018C1B2C52003F060F900E07D70BD
:10059000A078862801D9A5703572C049727E3E3197
:1005A00008461E30012A02D009E03572CEE7B94A6A
:1005B000203A5378012B02D1737A012B05D0B54A2A
:1005C000203AD27F002A7DD004E0B24A203AD27F7E
:1005D000002A14D0B87A085CF130C1B2C92003F007
:1005E00035F9AC482038417F42296CD9B8780146AA
:1005F0000A390A2968D2707E002866D01AE1A279E9
:10060000032A4ED2BA7A895C7A7B805C0818401C37
:10061000C1B2C92003F01AF9A048397B5230415CBD
:10062000FA7B2030805C0818401CC1B2CA2003F05D
:100630000DF99A48B97B6730415C7A7C2130805C47
:100640000818401CC1B2CB2003F000F99348397C54
:100650007D30415CFA7C2130805C0818401CC1B2BE
:10066000CC2003F0F3F88B482038407F422805D98E
:100670008A48B97C9330405CE13008E00146223979
:10068000212906D28548B97C9330405C6130C1B2E3
:1006900065E0222866D28148B97C9330405C2130E5
:1006A000F5E7D21E022A5DD2BA7A895C7A7B805C39
:1006B0000818401C0107090FC92003F0C7F8397B4F
:1006C000764803E067E084E071E06BE05230405C24
:1006D0007249FA7B7231895C401C4840C107C90FDE
:1006E000CA2003F0B3F86D48B97B6730405C6B49B2
:1006F0007A7C8831895C401C4840C107C90FCB20F7
:1007000003F0A4F86548397C7D30405C6349FA7C8D
:100710009E31895C401C4840C107C90FCC2003F0C2
:1007200095F85C48E1222038407F422805D95B4893
:10073000B97C9330415CE13110E001462239212936
:1007400005D25648B97C9330415C613106E02228DD
:1007500008D25248B97C9330415C21311140CE20FF
:1007600003F074F8A079032800D83AE74C48A57143
:100770000178491C0170E0790328F6D97576E57394
:100780002572A07B002804D042490120203908733B
:100790007074757225E7BA7A895C7A7B805C081878
:1007A000401C1AE73B48203824E045210AE00A288B
:1007B0000CD2707E00283DD13648203842E0C1B2CC
:1007C00000E04421CA2003F041F833E0132830D878
:1007D00030E030480A462038223A212A1AD2B97825
:1007E0000A46283A282A1CD3282910D2717E0029CB
:1007F00028D01FE0C07F0028D7D12848397B52304D
:10080000415CFA7B2030805C0818401CD7E74F29F8
:100810000FD80FE022290DD2B9780A46503A502A53
:1008200003D2717E0029E5D004E05029DED39F2950
:1008300000D9BD701848017D062933D2707E00288A
:100840000CD056E0C07F0028BBD11448397B523011
:10085000415CFA7B2030805C0818B0E70D482038F6
:10086000C07F002804D0A08A06280DD2F52128E0F8
:1008700009480A49827B6731895C427C0748883095
:10088000805C0818401C28E0811F05292CD2052116
:1008900017E00000840100204C0100200C460008F5
:1008A00018000020F848891F052921D2717E0029EF
:1008B0001FD1F649C97F002907D0A08A06280ED289
:1008C000F421CB2002F0C2FF13E0827BF049895C67
:1008D000427CEF482130805C0818C1B2F1E7811FEB
:1008E000052901D20421ECE70A2802D9A58200E0FB
:1008F0000575E64F787F422870D9E34881780A462B
:100900000A3A0A2A39D2717E002968D1F97F002972
:1009100073D0A08A062827D2F97E012902D1A07AB5
:10092000002803D0387F012802D004E00A2160E0CB
:10093000A27A012A05D0A27A012A0DD9012802D073
:1009400003E0DA2155E0012902D0002902D003E0BA
:10095000A57291E1012802D0002803D07AE101209C
:10096000A0728EE1A57275E1811F052901D20021D7
:100970003FE00A2833D9A5826CE10A2942D2717E70
:100980000029C2D1F97F002972D0A08A06282CD272
:10099000F97E012902D004E0C1B22AE0A07A002841
:1009A00003D0387F012802D004E00B2121E0A27A95
:1009B000012A05D0A27A012A0DD9012802D003E02C
:1009C000DB2116E0012902D0002902D003E0A57244
:1009D00096E1012804D0002805D079E116E07EE0F8
:1009E0000120A07287E1A57272E1811F052905D25D
:1009F0000121CC2002F02AFF0DE194E00A286ED9F3
:100A0000A58265E113296AD9857007E1014622397B
:100A1000212977D29C4881780A46283A282A35D25B
:100A2000717E00297ED1F97F00297CD0A08A06281A
:100A300024D2F97E012903D1A07A002800D175E7DC
:100A4000387F012803D1A27A012A00D179E7A27A5E
:100A5000012A0AD9012801D1012902D0002902D096
:100A600003E0A57284E1012803D0002804D06FE1DF
:100A700086E00120A07280E1A57269E1811F05294D
:100A800000D274E70A284DD9A58261E1282935D220
:100A9000717E002946D1F97F002971D0A08A0628ED
:100AA00023D2F97E012903D1A07A002800D17CE766
:100AB000387F012802D1A27A012A81D0A27A012AA4
:100AC0000AD9012801D1012902D0002902D003E06E
:100AD000A5728AE1012803D0002804D06DE1A6E0C8
:100AE0000120A0727CE1A57267E1811F052901D276
:100AF0007EE707E00A2815D9A5825EE14F2911D9C2
:100B0000857016E1222871D25F4881780A46503AF2
:100B1000502A43D2717E002968D1F97F002909D07B
:100B2000A08A01E038E105E006282FD2F87E0128EE
:100B30000AD00DE05649027C1631895CC27C5448CB
:100B40003730805C081827E7A17A002900D1EDE64C
:100B5000397F012903D1A27A012A00D1F1E6A27AD4
:100B6000012A0AD9012901D1012802D0002802D086
:100B700003E0A5726EE1012903D0002904D059E1F8
:100B80001BE00120A07270E1A57253E1811F0529CD
:100B900000D2ECE60A286ED9A5824BE150294FD24B
:100BA000717E002922D1F97F002906D0A08A06286B
:100BB0003ED2F87E01280BD011E03549027C163177
:100BC000895CC27C32483730805C0818401CE3E600
:100BD000A07A002803D10B21CC2002F037FE387F09
:100BE000012804D1A17A012901D1E9E699E0A17A8D
:100BF000012909D9012802D1F97E01290AD0F97EFB
:100C0000002901D1012802D0002803D003E00120EF
:100C1000A07200E0A572787F422808D91A4881782E
:100C20000A460A3A0A2A48D2717E00290CD07CE092
:100C3000811F052900D2DBE60A2871D9A58239E196
:100C40009F296ED98570E6E0F97F002906D0A08A39
:100C500006282DD2F97E012906D008E0817C0C48B7
:100C60002C30405CE1303BE0A07A002804D0387F93
:100C7000012803D00EE06CE1EB213DE0A27A012ACD
:100C800008D1E72138E000004C0100206401002079
:100C900073460008A27A012A07D9012801D1012947
:100CA00033D0002901D101282CD000282DD03CE0E0
:100CB000811F052930D2E1211EE00A2932D2717E3E
:100CC000002932D1F97F002906D0A08A06281ED239
:100CD000F97E012906D008E0817CAE48405CE03016
:100CE000C1B209E0A07A00280AD0387F0128D1D10A
:100CF000A27A012ACED1E621CE2002F0A7FD14E08F
:100D0000EA21F9E70120A0720FE0A5720DE0811F32
:100D1000052901D2E021EFE70A2806D9A58204E0DF
:100D200019E128E1132900D98570787F223821281C
:100D30006ED2994881780A46283A282A32D2717EA2
:100D4000002965D1F97F002906D0A08A062824D27F
:100D5000F97E012905D007E0817C8E48405C613036
:100D600033E0A07A002803D0387F012802D006E0C3
:100D70006B2136E0A27A012A01D1672131E0A27A03
:100D8000012A07D9012801D1012933D0002901D135
:100D900001282CD000282DD03AE0811F052930D21F
:100DA00061211EE0282930D2717E002930D1F97FDF
:100DB000002906D0A08A06281ED2F97E012906D075
:100DC00008E0817C7348405C6030C1B209E0A07AE1
:100DD00000280AD0387F0128D1D1A27A012ACED1A9
:100DE0006621CE2002F032FD12E06A21F9E70120EF
:100DF000A0720DE0A5720BE0811F052901D26021D0
:100E0000EFE70A2804D9A58202E04F2900D98570AE
:100E1000787F22286ED2604881780A46503A502A5C
:100E20003DD2717E002928D1F97F002906D0A08A01
:100E300006282BD2F97E012905D007E0817C554890
:100E4000405C21303EE0A07A002803D0387F0128A2
:100E500002D004E02B214AE0A27A012A05D0A27A2E
:100E6000012A0DD9012802D003E027213FE0012902
:100E700002D0002902D003E0A5725AE0012802D076
:100E80000028F9D055E00120A07252E0811F052909
:100E900001D221212BE00A284BD9A58249E0502913
:100EA00044D2717E002944D1F97F002906D0A08A5E
:100EB000062836D2F87E012806D008E0817C354825
:100EC000405C2030C1B212E0A17A002903D0397F02
:100ED000012902D004E02A2109E0A27A012A05D0E2
:100EE000A27A012A1AD9012912D013E02621CE2094
:100EF00002F0ACFC787F42281BD9274881780A464B
:100F00000A3A0A2A34D30A2938D313293CD83CE0B8
:100F10000128B1D0002801D10129B4D00029ABD0DB
:100F200007E0811F0529B6D22021E0E79F2900D9DB
:100F30008570787F01462239212911D2164881789F
:100F40000A46283A282A13D3282917D34F291BD811
:100F50001BE0052100E00B21CF2002F077FC14E01C
:100F6000222812D20C4881780A46503A502A03D2DD
:100F7000707E0028EDD008E0502903D2707E002852
:100F8000E9D002E09F2900D98570942002F0C8FBC7
:100F9000F8BD00009F4600084C01002010B52A480B
:100FA000294B047E29482A4A4179987EDB7D012C11
:100FB00008D0002C15D0012C06D0002C15D0012C07
:100FC00004D03CE0012B04D0002B24D0012B02D014
:100FD00035E0012802D000282BD030E0505C0F30E3
:100FE00029E0012B04D0002B0AD0012B02D026E0EF
:100FF000012802D0002819D021E0505C0D301AE001
:10100000012802D0002803D019E0505C093012E01A
:10101000505C401C0FE0012802D0002803D00EE0F5
:10102000505C0B3007E0505CC01C04E0505C401D7D
:1010300001E0505CC01DC1B2C22002F007FC942048
:1010400002F06EFB10BD0000640100204C01002086
:101050001746000810B5042000F0B0F810BD0000DD
:1010600010B50124A402204600F0A8F821460A4841
:1010700000F068F901280DD10848C178012909D18B
:101080004178002901D1E021417104484030418A72
:10109000491C418210BD0000000400506401002082
:1010A00072B6FEE7F0B5002808D0014620314A7933
:1010B000022A05D00422C263002008710120F0BD7D
:1010C000026813680E24A3431360426C1468FF2364
:1010D00001339C431460026814686408640014605F
:1010E0000C4A5568066C1C24264001242746B7404C
:1010F0003D435560826CC56C5560026D002A05D079
:1011000015689D431560826D406D42604C710020F2
:101110000871F0BD00000240F8B5002402462032FC
:101120005179022903D00421C16301242DE0016813
:101130000B680E25AB430B6001680B685B085B0016
:101140000B60416C0B68FF250135AB430B60104908
:101150004D68066C1C231E4001231F46B7403D43CB
:101160004D60816CC56C4D60016D002906D00E6824
:101170001D02AE430E60416D856D4D6053710021BF
:101180001171816B002900D088472046F8BD00000E
:101190000000024070B5044600F0E8F80546601C07
:1011A00002D004480078241800F0E0F8401BA04268
:1011B000FAD370BD4C0000207047000070B5084D98
:1011C0000446E868204203D0EC60204600F00AF8AC
:1011D0002869204203D02C612046FFF7EDFF70BD47
:1011E0000018024070470000F0B5002303249AE085
:1011F0002A4601259D402A407ED00E79B607B60FBB
:10120000012E01D0022E16D186682746B4465E0014
:10121000B646B7406646BE43B446CF687646B7404A
:101220006646374387604668AE430D79ED06ED0F9D
:101230009D40354345600D79ED43AD0708D0C56845
:101240005F002646BE40B5438E68BE402E43C66052
:101250000D79AD07AD0F022D0ED1DD08AD002D18B3
:10126000AC462D6A5E07F60E0F27B740BD430F69E7
:10127000B7402F4365462F6205685F002646BE4093
:10128000B5430E79B607B60FBE402E4306604D68D3
:10129000AD03AD0F46D09E08264DB6007519AC467D
:1012A0002D6E9E07F60E0F27B740BD4305273F075B
:1012B000B84201D100270FE01F4FB84201D10127EA
:1012C0000AE01E4FB84201D1022705E01C4FB84288
:1012D00001D1032700E00527B7402F43154D66468F
:1012E00037662D684E689543F60200D51543114FB9
:1012F0003D607D68954300E014E04E68B60200D57D
:1013000015437D600B4D80356E684F689643BF0373
:1013100000D516436E602E684F689643FF0300D5D4
:1013200016432E605B1C0A681546DA4000D05FE762
:10133000F0BD0000001802400004005000080050FA
:10134000000C00500069084000D00120704742693D
:1013500013460B401B0491430B4383617047002AE3
:1013600001D0816170478162704700000148806848
:10137000704700004C0000200248816802788918FC
:10138000816070474C00002010B5084800240168B7
:10139000821511430160032000F00AF8002801D0F3
:1013A000012401E000F028F8204610BD0020024092
:1013B00070B50F4E002431780546002915D07D20E8
:1013C000C000FEF70BFF01460A480068FEF706FF63
:1013D00000F0F6FB002808D1042D06D20022294691
:1013E000401E00F02BF8756000E00124204670BD1F
:1013F0004C0000205800002008B50948016801226F
:101400001143016000681040009005484038C26BED
:1014100001040A43C263C06B0840009008BD00008D
:1014200040100240002805DBC106C90E012088409B
:10143000014908607047000000E100E010B503F0CA
:1014400053F810BD10B50F4C21680322520291438E
:1014500001432160C11FFF39FA390ED10A48062124
:10146000006848430949FEF7B9FE401C02E0002825
:1014700005D0401E61694905F9D4002010BD032044
:1014800010BD0000007000405800002040420F00D6
:10149000F8B50446006800264D4D800358D54C48E9
:1014A00000274038C06BC00009D449484038C26B9F
:1014B00001040A43C263C06B0840012700904548FD
:1014C0000168821511430160FFF750FF009005E0AD
:1014D000FFF74CFF0099401A022825D83D480068C4
:1014E000C005F5D5E8690321090208400FD06169FC
:1014F00081420CD0E86903210902EA69884301218D
:1015000009040A43EA61EA698A43EA61E861C007BB
:101510000FD0FFF72BFF009008E0FFF727FF00999F
:10152000411A2D48814201D9032609E0E869800764
:10153000F3D5E86903210902884361690843E8613A
:10154000002F05D022484038C26B01048A43C26391
:101550002078C00705D0686961688008800008436A
:1015600068612078800606D56869032109038843ED
:10157000A168084368612088400411D56869216921
:10158000800080080843686101212069890788423A
:1015900006D10F484038C168012212041143C160CE
:1015A0002088000512D56869032189038843E16812
:1015B000084368610121E0688903884206D1044834
:1015C0004038C168012212041143C1603046F8BDA1
:1015D000401002400070004088130000F8B50F462C
:1015E000060043D04D4D28684007400FB84213D243
:1015F0002868C008C00038432860FFF7B7FE0446DB
:1016000005E0FFF7B3FE011B4548814261D8286819
:101610004007400FB842F4D13068424C81070DD5E5
:10162000400704D5A068072109030843A060A0680B
:101630000F2109028843B1680843A0603078C007D1
:1016400032D0706801280AD002280BD000280FD0B1
:101650003449403103280ED0C969890704E0216864
:10166000890301E021688901002906DB0120F8BD1A
:1016700021684905F8E7096AEFE7A168C908C900C8
:101680000143A160FFF772FE009006E0FFF76EFED7
:101690000099411A224881421BD8A068382108408D
:1016A0007168C9008842F1D128684007400FB842EC
:1016B00017D91A480168C908C90039430160FFF702
:1016C00055FE054607E0FFF751FE411B14488142D5
:1016D00001D90320F8BD114800684007400FB84207
:1016E000F1D13078400706D5A06807210903884367
:1016F000F1680843A06000F031F8A1683C22890934
:101700001140094A515CC906C90EC8400749086022
:1017100007480068FFF74CFEF8BD000000200240BB
:101720008813000000100240E04600085800002026
:10173000500000200648074900688968064A4904A5
:10174000490F8900515CC906C90EC84070470000A6
:1017500058000020001002402047000810B5204C1F
:10176000A068204A8006400F16D0A0688006410F6E
:10177000501001290FD0A1688906490F022912D003
:10178000A0688006400F042823D0A0688006400F80
:10179000032821D0002010BD206801218004400FC3
:1017A0008140104612E0E1688B07E1689B0F490613
:1017B000490F491C032B00D01046FEF70FFDE168CE
:1017C0004904490E4843E168490F491CFEF706FDEC
:1017D00010BD0120C00310BD7D20000210BD00001F
:1017E000001002400024F400F8B504007ED02078F8
:1017F0003827C007E94D002846D0A868E968384076
:101800008907890F102802D008280BD001E003298E
:1018100008D001206268000482420AD1296801438D
:10182000296015E0286880032ED560680028DDD087
:101830002AE0052301211B0489049A422A6802D167
:101840000A432A60EAE782432A60286888432860BE
:10185000606800280CD0FFF789FD064604E0FFF71A
:1018600085FD801B642873D828688003F7D50BE0BA
:10187000FFF77CFD064604E0FFF778FD801B642837
:10188000F1D828688003F7D42078800769D5A86844
:10189000E96838408A070721920FC902102802D050
:1018A000002813D001E0022A10D0E068002846D0BA
:1018B000286888432169084328602868FF2101318E
:1018C00008432860FFF752FD06462CE02A685205BF
:1018D00002D5E268002A89D06A687F231B029A43F6
:1018E00063691B021A436A60002800E08DE00ED194
:1018F00028688843216908432860286801218004FA
:10190000400F8140A648FEF769FCA6490860A6483A
:101910000068FFF74DFD002877D122E0FFF726FD94
:10192000801B02289FD828684005F7D568687F216A
:1019300009028843616909020843686011E0296867
:10194000FF20013081432960FFF710FD064605E0C6
:1019500098E0FFF70BFD801B022884D8286840051B
:10196000F7D42078914E00072ED5A8688006400F46
:1019700003280AD0A0690028306A16D00121084344
:101980003062FFF7F3FC07460BE0306A80071BD597
:10199000A06900289FD017E0FFF7E8FCC01B0228D1
:1019A00070D8306A8007F7D50EE0400840003062FA
:1019B000FFF7DCFC074604E0FFF7D8FCC01B022859
:1019C00060D8306A8007F7D4207840076CD5A868C3
:1019D00000278006400F042818D0E86BC00008D408
:1019E000E96B012000070143E963E96B014001272E
:1019F00000916F480168C90519D401688215114327
:101A00000160FFF7B3FC00900DE083E0F069800710
:101A10004AD5A06800287DD046E0FFF7A7FC0099D2
:101A2000401A02282ED862480068C005F5D5A16882
:101A3000012910D004200529F16911D04908490075
:101A4000F161F1698143F161A068002816D0FFF7C8
:101A50008DFC00900EE0F06901210843F061F3E78E
:101A60000143F161F7E7FFF781FC0099411A514802
:101A7000814265D8F0698007F5D50EE0FFF776FC66
:101A8000009007E05CE0FFF771FC0099411A4948BB
:101A9000814255D8F0698007F5D4002F04D0E96B56
:101AA000012000078143E963E069002873D0A96839
:101AB0008906490F02294DD00126360602282868DA
:101AC00005D0B0432860FFF751FC04463AE0B0432C
:101AD0002860FFF74BFC074604E0FFF747FCC01BFC
:101AE00002282DD828688001F7D4616A206AA26A8A
:101AF0000843E16A120211430843216B0843E96875
:101B00002D4A11400843E860286830432860E8689F
:101B1000012100E03DE009070843E860FFF726FCEB
:101B2000044604E0FFF722FC001B022808D82868BE
:101B30008001F7D52FE0FFF719FC001B022801D91F
:101B40000320F8BD28688001F5D4E8681B490840E7
:101B5000E86020E00128F4D0E868226A8107890F54
:101B6000914216D17021626A0140914211D17F21C8
:101B7000A26A09020140120291420AD11F214904BE
:101B8000E26A0140914204D1400F216B4007884234
:101B900001D00120F8BD0020F8BD00000010024077
:101BA0000024F400580000205000002040100240A3
:101BB00000700040881300008C80C11FFCFFFEEF06
:101BC000094910B5401E884201D9012010BD074CBB
:101BD00060610321081F02F087FC0020A06107203C
:101BE0002061002010BD0000FFFFFF0000E000E0CA
:101BF0007047704770470000F0B5034620331A7FE6
:101C0000012A24D001221A7702225A7704686268D6
:101C1000A568104FBC4205D116460F221205964307
:101C20004A6832437026B2430E6816436660006805
:101C3000B84202D0084A904204D180228968954374
:101C4000294381600120587700201877F0BD0220D9
:101C5000F0BD0000002C01400004004070B50400FD
:101C600005D025462035687F002802D006E00120F7
:101C700070BD00202877204600F016F80220687713
:101C8000211D206801F06CFD012240342272AA77E8
:101C9000EA7722706270A270E27022716271A271A2
:101CA000E2716A77002070BD08B500680949884272
:101CB0000FD10948C26B02210A43C263C06B0022E4
:101CC0000840009011461020FFF7B8FB1020FFF7E6
:101CD000A9FB08BD0004004000100240014620316D
:101CE0004A7F012A01D00120704702224A77016809
:101CF000CB6801221343CB6000680949884202D0B7
:101D00000849884207D18168074B1940062905D048
:101D1000DB1F994202D00168114301600020704727
:101D2000002C01400004004007000100F8B5054602
:101D300004462035287F0026012817D001272F7759
:101D400002206877226890682F4B1840FF231B02FF
:101D5000984390600868502838D00EDC20284FD077
:101D600006DC00284CD010281ED149E00220F8BD26
:101D7000302845D0402817D13AE060282ED070286E
:101D800018D001221203801A0FD090420CD1CB68D8
:101D90004A688968206801F01FFD20688168012277
:101DA00092031143816000E001266F7700202877BD
:101DB0003046F8BDCB684A688968206801F00CFDA0
:101DC00021688868772210438860EEE7CA6849680E
:101DD000206801F017FD5021206806E0CA684968B4
:101DE000206801F020FD6021206801F001FDDCE7A2
:101DF000CA684968206801F005FD40212068F4E7C1
:101E0000226801461046F0E788FFCEFF70470000C9
:101E100070B50446006801690025C9438907002997
:101E200015DBC168C943890711D4E91E016101208E
:101E30002077206880698007204602D0FFF7E6FF00
:101E400004E000F0A7F8204600F0A5F82577206808
:101E50000169C943490717D4C168C943490713D465
:101E60000421C94301610220207720688069800530
:101E7000800F204602D0FFF7C9FF04E000F08AF887
:101E8000204600F088F8257720680169C9430907D2
:101E900016D4C168C943090712D40821C943016196
:101EA000042020772068C0698007204602D0FFF711
:101EB000ADFF04E000F06EF8204600F06CF82577E6
:101EC00020680169C943C90617D4C168C943C90656
:101ED00013D41021C9430161082020772068C0690C
:101EE0008005800F204602D0FFF790FF04E000F04D
:101EF00051F8204600F04FF8257720680169C94362
:101F0000C90708D1C168C943C90704D1891E016145
:101F1000204600F041F820680169C943090609D448
:101F2000C168C943090605D48021C943016120461F
:101F3000FFF75FFE20680169C943C90508D4C1687D
:101F4000C943090604D4124901612046FFF750FE37
:101F500020680169C943490609D4C168C9434906D3
:101F600005D44021C9430161204600F07DF8206876
:101F70000169C943890609D4C168C943890605D4E2
:101F80002021C94301612046FFF734FE70BD0000E7
:101F9000FFFEFFFF7047704730B500682E4988424A
:101FA00058D12E4A2E4910780023401CC4B2147018
:101FB0005078401CC5B255704878401C48708878ED
:101FC000401C88702748092D0CD953700D7D6D1C5D
:101FD0000D75C18A491CC1828179491C8171818A30
:101FE000491C8182632C35D91E49137020394A78E7
:101FF000521C4A708278521C8270427B521C55B22D
:1020000045730279521C0271427A521C4272427923
:10201000521C4271C279521CC2710A46203AD479CC
:10202000641CD471847A641C8472CC7B641CCC7371
:10203000547C641C5474047A641C0472D27C012A9B
:1020400002D10A7E521C0A763B2D03DD4373C87C05
:10205000401CC87430BD0000000400402400002073
:102060004C010020A4010020704710B501468031CA
:102070000A78012A15D001220A7024224A600268D7
:1020800013681468640864001460012252079343C3
:102090000022426600680360202048600A701046F3
:1020A00010BD022010BD7047704770B5044605464C
:1020B0008034207801281AD001202070242060600C
:1020C0002868066802685208520002602868826820
:1020D00007235B069A430A438260284601F0F6FB19
:1020E00028680660202060600020207070BD0220FB
:1020F00070BD70B50446054680342078012819D09B
:102100000120207024206060286806680268520858
:102110005200026028688268D200D2080A438260B6
:10212000284601F0D3FB286806602020606000206C
:10213000207070BD022070BD70477047704700006E
:10214000F8B503680446D96918689A68B24D0E4616
:102150002E4025468035002E75D0B04EB04F16402B
:10216000074037436ED0CF0706D0C70504D50127F7
:102170001F62EB683B43EB608B0708D5D30706D0A3
:10218000276802233B62EB6804273B43EB604B0765
:1021900008D5D30706D0276804233B62EB680227E3
:1021A0003B43EB600B0709D520230340334305D0A5
:1021B000266808233362EE681E43EE600B0509D5DE
:1021C000430107D501232668DB023362EB68202632
:1021D0003343EB60EB68002B42D089060AD52021FF
:1021E0000840C9050A40104304D0216F002901D0DE
:1021F00020468847E86821688968490602D4282172
:10220000084232D0204601F025FC2168886840064B
:1022100027D5EFF31080012282F310888B684022CB
:1022200093438B6080F31088E06F002819D07D49BC
:102230008163E06FFEF770FF002811D0E06F816BC3
:102240000DE000E017E08E0615D5012720263F0798
:10225000064017403E430ED0216FB1E0204688472C
:10226000F8BD2046FFF76AFFF8BD2046FFF766FF7E
:102270000020E860F8BDE66E012E7CD1CE067AD54E
:10228000C60678D510221A6223689868264640064A
:102290004036002847DAE16F086840680004000C07
:1022A000E8D0B78B8742E5D9F083086800688006DC
:1022B00034D4EFF31080012181F3108819681701DD
:1022C000B943196080F31088EFF31080012181F386
:1022D000108821688B685B085B008B6080F3108836
:1022E000EFF31080012181F3108821688B6840276B
:1022F000BB438B6080F310882020A8600020E0663C
:10230000EFF31080012181F3108821680B6893435B
:102310000B6080F31088E06FFEF7C4FEB08BF18B8A
:10232000401A81B233E0B08BF18B401A81B2F08B4E
:1023300000289FD000299DD0EFF31080012686F35E
:1023400010881E68FF272137BE431E6080F3108867
:10235000EFF31080012383F3108823689E682F4FCA
:10236000FF433E409E6080F310882020A86000203C
:10237000E066206700E00EE0EFF31080012383F3B6
:10238000108823681D6895431D6080F310882046DF
:10239000FFF789FEF8BDCE0208D5560206D501200A
:1023A000000518622046FFF7C8FEF8BD0E060BD5E3
:1023B00001278026FF0506403A40164304D0616F8E
:1023C000002900D04AE7F8BD4A0614D5420612D5C6
:1023D0002046EFF31081012282F310881C6840220E
:1023E00094431C6081F310882021696000214167BB
:1023F00000F0D4F9F8BD0A0205D5420003D5204605
:10240000FFF79AFEF8BDC901FCD50028FADA20468C
:10241000FFF74AFEF8BD00000F08000001000010A1
:1024200020010004413A000870B5040005D025469B
:1024300080356868002802D006E0012070BD0020C9
:102440002870204600F026F8242068602068016883
:10245000490849000160204601F066FD0128EDD0E1
:10246000A06A002802D0204601F052FA2068416894
:102470000922D20291434160206881682A22914357
:10248000816020680168012211430160204601F04B
:10249000A5FA70BD10B58CB0044614216846FDF74E
:1024A0009BFE182105A8FDF797FE1A49206888426F
:1024B0002DD1012000240590069405A8FEF7E8FF21
:1024C000002801D0FEF7ECFD1348026801218903C2
:1024D0000A430260006808400B900F484038426B86
:1024E00002210A434263406B6A4608400B90C020B9
:1024F00013C20394694609480494FEF775FE00224E
:1025000001211B20FEF79AFF1B20FEF78BFF0CB06A
:1025100010BD00000038014040100240000400508F
:1025200070B5034680339C68202C29D100290BD03C
:10253000002A09D0012584682D03AC4206D1046924
:10254000002C03D1CC0701D0012070BD1C78012CD8
:1025500016D001241C700023C366046863681B0244
:102560000BD5EFF31083012585F31088256801262C
:10257000B6063543256083F3108801F089FD70BDF0
:10258000022070BDF8B5524988426FD1514A524974
:10259000D77810460C3001250E78002400783B00D7
:1025A00001F094FF0504080C37828A004D2800D101
:1025B000D57085E0412853D1022040E0442812D054
:1025C000572812D0502812D0432812D0422812D0B7
:1025D000532812D0542812D0452812D04E2814D097
:1025E0004D2810D03CE00D7011E002200EE00420D8
:1025F0000CE005200AE0072008E0062006E00A209B
:1026000004E00B2002E0082000E00920087003200D
:1026100015E0314B0027203300932E4B0C33DF574E
:10262000330001F053FF0C4D070E4D1F21243032B3
:10263000382B2E4DC8762848203805740420D070D9
:102640003EE0012804D0002804D0522804D004E041
:102650008D7002E08C7000E00D721F4820384475C8
:10266000D4702DE0C87022E0009912E02EE048718D
:10267000194920394877D4704D7521E00098C77208
:1026800015E0887213E00875F8E74875009807733D
:10269000072008700BE0401C8875009948730E49AC
:1026A0002039C8714D75DBE7012E09D108770A483A
:1026B000D4702038457503E00748D470203844753D
:1026C000044901220C310248FFF72AFFF8BD00003F
:1026D000A8000020000000208401002070B50346FF
:1026E00080335C68202C4FD100290AD0002A08D002
:1026F0008568E401A54206D10669002E03D1CE0704
:1027000001D0012070BD1E78012E3DD001261E7023
:102710000165014640318A82CA8200214167D96041
:1027200021225A60426E7607B24215D1A54202D1EB
:102730000269002A0ED0154A42671970EFF3108122
:10274000012282F31088006882680123DB051A43A6
:10275000826013E00E4AEFE7A54202D10269002A27
:1027600010D00C4A42671970EFF31081012282F3F6
:1027700010880068026880231A43026081F3108881
:10278000002070BD044AEDE7022070BDF54200084C
:102790002542000899420008C541000803498842C3
:1027A00002D103490020487070470000A8000020B3
:1027B00000000020FEE70000F8B5414C414FFF2526
:1027C00001210026257089023846FEF7BBFD01284D
:1027D00003D12078400840002070012109033846C9
:1027E000FEF7B0FD01280DD004213846FEF7AAFD02
:1027F00001280AD00121C9023846FEF7A3FD0128AD
:1028000006D009E02078FB2104E02078F72101E0E0
:102810002078FD2108402070217C00200B0001F071
:1028200055FE06040D1D4B423F4B2178FF2944D035
:10283000617001212174E06020723EE022786178AD
:102840008A4209D1E268521CE260632A35D96940A4
:102850006160E06002202FE0E0602DE02378627884
:102860000521934210D1E2687D23521CDB00E26017
:102870009A4222D9144A5278012A1ED162688023D2
:102880001A436260E06009E0FF2B16D1207A401CF9
:10289000C0B22072032810D96A40626021740CE033
:1028A0002679042008E02178FF2906D1217A491CE5
:1028B000C9B22172032900D920743046F8BD000046
:1028C000380100200004005064010020F8B5794E62
:1028D0007A4C30464038F78AC37D057E764A617966
:1028E000807E062F65D2403E012D08D0002D0DD0F0
:1028F000012D25D0002D0DD0012D23D03BE0012B43
:1029000020D1012821D1505C0F3030E0012B04D0C0
:10291000002B0AD0012B02D02DE0012802D0002884
:1029200018D028E0505C0D3021E0012802D00028AA
:1029300003D020E0505C093019E0505C401C16E0E8
:10294000012B02D0002B08D015E0002813D1505CD9
:10295000C01D0CE0505C401D09E0002802D0012899
:1029600003D008E0505CC01C01E0505C0B30C1B2E9
:10297000C22000F06BFF707E217901285048E27977
:10298000415C5048805C10D00918FE200140C320F3
:1029900000F05CFF4B48A1790A38415C627A1E3036
:1029A000805C0818401CC1B262E00818401CC1B22B
:1029B000EDE7BF1F052F6AD23E4E403E012D08D0E5
:1029C000002D0DD0012D25D0002D0DD0012D23D0AF
:1029D0003CE0012B20D1012821D1505C401E30E089
:1029E000012B04D0002B0AD0012B02D02EE00128AD
:1029F00002D0002818D029E0505CC01E21E0012838
:102A000002D0002803D021E0505CC01F19E0505CC8
:102A1000401C16E0012B02D0002B08D016E0002845
:102A200014D1505CC01D0CE0505C401D09E0002832
:102A300002D0012803D009E0505CC01C01E0505CCA
:102A4000401F0107090FC22000F000FF707E01281F
:102A500012D00021C32000F0F9FE1A48A1790A38EB
:102A6000415C627A1E30805C0918F120491C0140EB
:102A7000C42000F0EBFEF8BD21791148E279405CFA
:102A80001049401C895C4840C107C90FE2E700209B
:102A90000D49F0824A78521CD2B24A70032AEAD910
:102AA0004870044920398871F070012088764320ED
:102AB0003071F8BDA4010020174600084C01002029
:102AC0000C4600082C4600081800002070B50020B5
:102AD00000F026FE402000F023FE442000F020FEFF
:102AE0000021C22000F0B2FE0021C32000F0AEFEA3
:102AF0000021C42000F0AAFE0021C52000F0A6FE9F
:102B00000021C92000F0A2FE334D687E002803D1C9
:102B10000021CB2000F09AFE2F482038407F222849
:102B200055D22E4C2C48A17820300A46503A502AD3
:102B300024D22B496B7E0A460E46203241360125AF
:102B4000002B03D08079C01E022840D2207B085C75
:102B5000E17B401C515C4840C107C90FCA2000F00E
:102B600075FE0021CC2000F071FEA07C2946305C6F
:102B70008143CE2000F06AFE052120E0502922D2B8
:102B8000697E174D2B352E462136002903D08079DA
:102B9000C01E02281BD20021CA2000F057FE207C54
:102BA000E17C285C715C401C4840C107C90FCC2007
:102BB00000F04CFE0021CE2000F048FE0B21CF207B
:102BC00000F044FE03E09F2901D90020A07094206A
:102BD00000F0A6FD70BD0000840100204C01002023
:102BE0005E46000810B5052424070022082120466F
:102BF000FEF7B5FB002204212046FEF7B0FB0121C1
:102C0000002249020348FEF7AAFB802000F088FD5D
:102C100010BD00000004005010B505242407012257
:102C200008212046FEF79BFB012204212046FEF7E7
:102C300096FB012251020248FEF791FB10BD0000F5
:102C400000040050F0B587B014216846FDF7C4FABF
:102C50002848416B012631434163416B3140059166
:102C6000416B022529434163416B29400591426B29
:102C700004210A434263406B00220840059005206E
:102C80007C210007FEF76BFB2F02002239461A4811
:102C9000FEF765FB7C200024009005200294694625
:102CA000019603940007FEF79FFA029469461248C2
:102CB000009701960394FEF797FA1048694631C1D0
:102CC00069460D480394FEF78FFA680200901120C0
:102CD00000040190694602950748FEF785FA002234
:102CE00001210720FEF7AAFB0720FEF79BFB07B098
:102CF000F0BD000000100240000400500418000065
:102D000010B588B0002400940194174802940394ED
:102D1000049405941349069401601721846041606E
:102D2000046112498461C160FEF798FF002801D058
:102D3000FEF7B6F901200003009069460A48FEF745
:102D4000F5FF002801D0FEF7ABF9049404A906486A
:102D50000694FEF751FF002801D0FEF7A1F908B054
:102D600010BD0000000400405C0000200F270000A0
:102D700010B51848164901604B21C9014160002176
:102D80008160C16001618161C16101620C224162A7
:102D900042618162FFF748FB002801D0FEF780F90D
:102DA00000210C48FFF7A5F9002801D0FEF778F9BB
:102DB00000210848FFF779F9002801D0FEF770F9E3
:102DC0000448FFF752F9002801D0FEF769F910BD59
:102DD00000380140A8000020FEE7704707490020A6
:102DE000C875087688760A464870203210720873D3
:102DF00001234B721E234B775070704764010020F3
:102E00001449E02048700020487201224A76CA75B1
:102E10000A768A760B4620339876987164224A7730
:102E2000FF22DA710A46C871403210729073D07373
:102E3000587208730849CB78002B0AD15073D072AE
:102E40001073087348738873C8730874487488745F
:102E5000C8747047640100204C010020F8B57A4E18
:102E60000025374634467278F17E337F4037203470
:102E7000082875D008DC01281CD002283FD004287F
:102E80003CD1012A6BD0BAE081282ED0822852D0C2
:102E9000E02833D1012000F011FB0520FEF77AF97C
:102EA000FFF7AEFF012070707D71E02171737076C5
:102EB000E575A4E0FFF792FF002000F0FFFA05207F
:102EC000FEF768F9757001207073A576F574E572E8
:102ED0007D7125726576A574FD70A571BD73FD7356
:102EE0003573F577F576357789E0012000F01AFB28
:102EF0000520FEF74FF97D71A570BD70F8BD012A60
:102F00007DD100297BD1002B79D1E07D002802D032
:102F1000012806D073E00120E075022070761420AD
:102F200003E0E57501207076042000F0FBFA012033
:102F3000FEF730F963E0012A61D1002B5FD100294F
:102F40005DD10220707601206072E0753F49FD710D
:102F500048706076142000F0E5FA50E000E045E0AB
:102F6000012A4CD100294AD100F08EFA607A00285B
:102F700002D0012843D119E0E572E0781421401C09
:102F8000C0B2E070142801D3282846D9E17044E08B
:102F9000E0780A21FDF722F9A8742D4AE97410712E
:102FA00050719171D1710120F87028E0274C607840
:102FB000401C6070FD71B87B401C40B2B87318288B
:102FC00000DDBD730E2038560A21FDF711F9E070BF
:102FD000A170FD7365711E4A257110735073917352
:102FE000D173157455749574D57408E0002906D111
:102FF00000F04AFA607A002804D0012816D0FF2099
:103000007071F8BDE572E078401EC0B2E07014281F
:1030100001D3282801D92820E0700C4D28780028F9
:10302000B6D1012028702820E070B1E7074C607805
:10303000401C6070FD71B87B401E40B2B873002820
:10304000C0DA1820B873BDE7640100202800002012
:103050004C010020F8B5504907460D4640350B207D
:103060000E464C4C4A78285620363B0001F02EFA8A
:103070000C0C1B0C0C0D070C390C0C5E7D0C01208C
:103080000874287800F08CF8F8BD012AFCD1F0789B
:103090000A21FDF7A3F8414A107351736071207142
:1030A000E171A171F8BD012AFCD1F07E0A21FDF782
:1030B00095F83A4A074690731046C1730D46307F23
:1030C0000A21FDF78BF8354A107451746071207134
:1030D000E171A17167722772E572A572FDF7E0F9DF
:1030E000F8BD012AFCD1097B0029F9D10A21FDF79D
:1030F0007FF820736073A173E1730C2028560A21B6
:10310000FDF776F8207460740520FEF743F80C2074
:1031100028560A21FDF76CF8A174E1740520FEF72A
:1031200039F8FDF7BDF90120E070F8BD0028FCD0AA
:1031300001220A737276002129730A21FDF758F8DB
:10314000207360730120FEF725F80B2028560A2112
:10315000FDF74EF8A173E1730120FEF71BF8287B01
:1031600020746074A074E074F8BD012AFCD10120C1
:10317000E870F072B07AF0700A21FDF72FF8074A74
:103180001073517360712071E171A1710020E882A8
:10319000F8BD00004C010020640100202800002040
:1031A000F0B5364901230C4620344D78E67D0022E7
:1031B000142843D014DC082834D009DC012846D078
:1031C000022840D004281AD1012D18D1CB7538E03F
:1031D000112840D0122812D1012D10D10A7630E0EA
:1031E000264F4037E0283AD00ADC18281AD0802829
:1031F00010D0812803D1A3700220E0714B71F0BD83
:10320000E12831D0F128FAD164204877C87E00281F
:1032100030D030E0E371A3704B704B76E275E02064
:103220004871F0BD012DFCD1002E04D0012EF8D143
:10323000E2754B76F0BDE3754A76F0BD012DFCD109
:10324000CA754A72F0BD012DFCD10B76F9E7012D4C
:10325000F8D18B76F5E7012DF4D18A76F1E7BA72D1
:103260000A76CB77CB76F0BD1F20B872CB774A7742
:103270000B77F0BDCA770A77F0BD0000640100202B
:10328000F8B57D4E0127344672782034E079002568
:103290007A49002A7ED0012A2ED100220D468A7258
:1032A000317C00290CD0012926D133213046C1734D
:1032B000FFF7B2FCE07D00281FD0012824D11FE0D9
:1032C00001280AD0707BE02807D1FF20707301200D
:1032D00000F0F4F80520FDF75DFFF07B2D2807D204
:1032E000401CF073012000F0E9F80520FDF752FFC3
:1032F000F07B2C2800D93774F8BD286A804703E09A
:1033000000F05EF901F0C0F8FDF7CAF85A4E607C93
:103310004036012807D102206074F07A00F036F9B7
:103320000520FDF737FFF078012803D0A0790028A9
:1033300006D01BE00020F0702F72A771F08215E01C
:10334000287A012812D100202872207F0A21FCF758
:1033500045FF00910A21FCF741FF0846A971009939
:10336000474AE971107150719171D171A07E0128A5
:1033700022D130793D281FD93F48C17E00291BD179
:1033800000233371E278217F8A4201D9272907D9A6
:10339000037600E034E0912000F0AAF8C82009E0AC
:1033A000D21E8A4201DC252906D20776902000F041
:1033B0009FF80120FDF7EEFE7079092815D900204D
:1033C0007071E078002801D11420E070E87A0028BC
:1033D00002D1EF722820E070E07A012805D0E07871
:1033E00000F0BAF80220FDF7D5FEA078012883D1BD
:1033F000687A002880D16F72AA2000F079F8F8BDB1
:103400001E493574897A00290AD00129F7D1FDF7C0
:103410000BF81A48006A8047707A012814D028E017
:1034200002280DD0F07B022802D0002000F046F8E0
:103430000A20FDF7AFFEF07B022801D10320F073D4
:103440000E48F5748772F8BD60783D280ED20524C9
:103450002407002204212046FDF781FF01220821D4
:103460002046FDF77CFFFFF731FB02E07572FFF7A6
:10347000B9FBFF207073F8BD640100202800002014
:103480004C0100207047000010B50A48542101701B
:103490004B2141705A218170C1700422001F82703B
:1034A00041780029FCD10121417002490248FFF70F
:1034B00015F910BD04000020A800002010B50A492D
:1034C00054220A704B224A7050228A70C87004221B
:1034D000081F827041780029FCD101214170024906
:1034E0000248FFF7FBF810BD04000020A8000020F0
:1034F00010B50A4954220A704B224A7043228A703E
:10350000C8700422081F827041780029FCD1012173
:10351000417002490248FFF7E1F810BD04000020A5
:10352000A800002010B50A4954220A704B224A70A4
:1035300057228A70C8700422081F827041780029BF
:10354000FCD10121417002490248FFF7C7F810BDC4
:1035500004000020A800002010B50A4954220A7077
:103560004B224A704D228A70C8700422081F827054
:1035700041780029FCD10121417002490248FFF73E
:10358000ADF810BD04000020A800002010B50A49C5
:1035900054220A704B234B708A70C8700422081F93
:1035A000827041780029FCD1012141700249034811
:1035B000FFF794F810BD000004000020A8000020D0
:1035C000F8B5204C207A3B281ED900252572E07BD7
:1035D000401E40B2E073002816DAA07B3B21401E5B
:1035E00040B2A073E17300280EDA2746403F387BD3
:1035F0002646203EA5730128E57319D0F5750120F4
:1036000078764420FFF774FF0E2020560A21FCF73D
:10361000EFFD0D4D28736873A973E9730F202056D1
:103620000A21FCF7E5FD28746874A974E974F8BDF3
:10363000FF20F071FFF7D2FB01207873787275706C
:10364000E2E70000A40100204C01002070B51348FF
:10365000017A3B2920D900240472C17B491E49B25A
:10366000C173002918DA817B3B22491E49B281735C
:10367000C273002910DA0546403D297B8473012975
:10368000C47309D12E46FF202036F071FFF7A6FB48
:103690006C7001206872747070BD0000A40100207D
:1036A00001498861704700002800002010B5FDF72F
:1036B00063FE10BD30B591B034216846FCF78CFD37
:1036C000002501200D950E950F9540021095FDF7F0
:1036D000B9FE0224E00103900094402005900920E7
:1036E0000A9020040B9005200794400704950C9045
:1036F000099508946846FEF777F8002801D072B65D
:10370000FEE707200DA931C100210DA81095FDF796
:1037100065FF002801D072B6FEE711B030BD7047DA
:1037200070B5052405462407012220212046FDF717
:1037300016FE002210212046FDF711FE284600F05B
:10374000A0F8012210212046FDF709FE70BD0000FF
:1037500010B50248FEF75CFB10BD00005C000020C5
:1037600070B50268174B184E984201D0B04203D191
:103770007024A2434C682243144C154D984208D043
:10378000B04206D0134EB04203D0A04201D0A842AE
:1037900004D103263602B243CE6832438026B243B8
:1037A0004E69324302608A68C2620A688262984245
:1037B00003D0A04201D0A84201D1096901630121CF
:1037C000416170BD002C01400004004000440140F4
:1037D000004801400020004030B58468FF252D02DC
:1037E0001B021343AC430B432343836030BD0000F3
:1037F0008268034B1A400A4307210A4382607047DC
:103800008FFFCFFF30B5036A046A64086400046266
:103810008469F025AC43120122430A24A3430B43DD
:103820008261036230BD30B5036A1024A343036292
:103830008469036A0F252D031203AC432243A0249D
:10384000A343090119438261016230BD70B50524AB
:103850000E4605462407012220212046FDF77FFD64
:10386000002210212046FDF77AFD284600F009F8D5
:10387000304600F006F8012210212046FDF76FFDCA
:1038800070BD70B5002405260546360700222021AC
:103890003046FDF764FDE80701D0012200E0002278
:1038A00040213046FDF75BFD642000F03FFE6D08CF
:1038B000012220213046FDF752FD022000F036FEA5
:1038C000641CE4B2082CE1D370BD0000F8B50446D6
:1038D000416E4034002915D0006881688068090174
:1038E0004D0F0A4E400F3746315C083F385CC00030
:1038F000FCF774FC6085785D715DC000FCF76EFCC0
:103900002085F8BD01206085FAE70000D646000852
:1039100010B5018DC90707D001684A6801235B040F
:103920009A43C36A1A434A60018D890707D5016823
:103930004A6801231B049A43036B1A434A60018DB2
:10394000490707D501684A6801239B049A43436BE2
:103950001A434A60018D090707D501684A680123A7
:10396000DB039A43836B1A434A60018DC90607D56E
:103970000268916801231B039943C36B194391604B
:10398000018D890607D501688A6801235B039A4384
:10399000036C1A438A60018D490612D503685A6880
:1039A00001210905446C8A4322435A60426C8A42D1
:1039B00007D10268516803235B059943836C19435F
:1039C0005160018D090607D501684A680123DB04AF
:1039D000C06C9A4302434A6010BD0000FEB5054624
:1039E000002680350446EE60FDF7C0FC019020689B
:1039F0000068124F000709D50121009700224905F0
:103A00002046019B00F0AEFC00280DD12068006824
:103A100040070BD501210097002289052046019B14
:103A200000F0A0FC002801D00320FEBD202068602B
:103A3000A860E6662E700020FEBD0000FFFFFF01BB
:103A400010B5806A002201464031CA83CA82FEF75F
:103A500075FB10BD10B5EFF31081012282F31088C1
:103A600002681368FF242134A343136081F3108894
:103A7000EFF31081012282F31088026893680D4CE5
:103A80002340936081F31088C16E01290BD1EFF3BD
:103A90001081012282F31088026813681024A34366
:103AA000136081F31088202288210A500021C1660A
:103AB000016710BDFEFFFFEF70B5014640310346C0
:103AC00080330C8C9D680268222D04D090690821F7
:103AD0000843906170BD526A856D22402A80826DD4
:103AE000921C8265CA8B521ECA83CA8B002AF1D1EE
:103AF000EFF31082012484F3108804682568FF2600
:103B00002136B543256082F31088EFF3108201243B
:103B100084F310880468A5686D086D00A56082F3C1
:103B2000108820229A6000220267C36E012B02D007
:103B3000FEF728FD70BDC266EFF31082012383F308
:103B400010880468256810239D43256082F310883F
:103B50000268D469E443E40600D41362898BFEF75B
:103B6000A2FA70BDF0B505460446403589B0288CF0
:103B700002902168CE690868069088680490204603
:103B8000803000908068222805D08A69082002438E
:103B90008A6109B0F0BD2F8D68E02068406A029A02
:103BA000A16D10400880A06D801CA065E88B401EB0
:103BB000E8832068C669710731D0F10709D00699FA
:103BC000C90506D5012101620098C0680843009923
:103BD000C860B0070BD50498C00708D02168022040
:103BE00008620098C068042108430099C860700703
:103BF0000BD50498C00708D02168042008620098FB
:103C0000C068022108430099C8600098C068002875
:103C100005D02046FEF792FA00990020C860E88B94
:103C2000002823D1EFF31080012181F3108821684F
:103C30000A68FF2301339A430A6080F31088EFF388
:103C40001080012181F3108821688A68264B1A4070
:103C50008A6080F31088009820218160002020670E
:103C6000E16E012928D02046FEF78CFC002F01D000
:103C7000B00692D4E88B00288BD0298D814288D958
:103C8000EFF31080012181F3108821688A680123F5
:103C90001B079A438A6080F310881448EFF3108161
:103CA0002067012080F310882068026820231A43CF
:103CB000026081F310886CE7E066EFF31080012169
:103CC00081F310882268136810218B43136080F3FE
:103CD00010882068C269D243D20600D40162A98B41
:103CE0002046FEF7E0F9C1E7FEFFFFEFB93A000812
:103CF00070B501464031034680330C8C9D680268E4
:103D0000222D04D0906908210843906170BD526A49
:103D10002240846D2270826D521C8265CA8B521EB5
:103D2000CA83CA8B002AF1D1EFF31082012484F3F5
:103D3000108804682568FF262136B543256082F384
:103D40001088EFF31082012484F310880468A568BA
:103D50006D086D00A56082F3108820229A60002211
:103D60000267C36E012B02D0FEF70CFC70BDC26669
:103D7000EFF31082012383F3108804682568102371
:103D80009D43256082F310880268D469E443E40609
:103D900000D41362898BFEF786F970BDF0B5054635
:103DA0000446403589B0288C01902168CE690868A6
:103DB000069088680490204680300290806822280F
:103DC00005D0886908221043886109B0F0BD2F8DA5
:103DD00068E02068406A01990840A16D0870A06DF4
:103DE000401CA065E88B401EE8832068C669710707
:103DF00031D0F10709D00699C90506D50121016224
:103E00000298C06808430299C860B0070BD50498AF
:103E1000C00708D02168022008620298C068042107
:103E200008430299C86070070BD50498C00708D0F2
:103E30002168042008620298C068022108430299A0
:103E4000C8600298C068002805D02046FEF776F9C1
:103E500002990020C860E88B002823D1EFF310807E
:103E6000012181F3108821680A68FF2301339A43F6
:103E70000A6080F31088EFF31080012181F310882D
:103E800021688A68264B1A408A6080F3108802995C
:103E90002020886000202067E16E012928D020467C
:103EA000FEF770FB002F01D0B00692D4E88B0028FB
:103EB0008BD0298D814288D9EFF31080012181F3C5
:103EC000108821688A6801231B079A438A6080F35F
:103ED000108814482067EFF31080012181F31088C7
:103EE00021680B68202213430B6080F310886CE775
:103EF000E066EFF31080012181F3108822681368D7
:103F000010218B43136080F310882068C269D2436C
:103F1000D20600D40162A98B2046FEF7C4F8C1E79F
:103F2000FEFFFFEFF13C0008F8B504468068216908
:103F3000E26908436169002511432268084311685A
:103F40004B4B194001431160206841680322120362
:103F50009143E26811434160A169206A08432168E6
:103F60008A68444B1A4002438A602068C16A626AC8
:103F7000090909011143C1623F492068884211D1F2
:103F80003E4840698007800F0FD0012806D00228E4
:103F900002D003280BD103E0022109E0042107E04D
:103FA000082105E03649884201D1002100E01021B6
:103FB0000120E369C003334A334E344F834227D193
:103FC000002906D0022907D0042907D008293FD1AB
:103FD00008E0FDF7AFFB03E0104603E0FDF7BEFB92
:103FE00000283AD0616A4900715AFCF7F7F8616815
:103FF00040004A088018FCF7F1F801461039B94230
:1040000026D82249491C01400007400F084322E0FE
:10401000002906D0022907D0042907D0082917D182
:1040200008E0FDF787FB03E0104603E0FDF796FB91
:10403000002812D0616A4900715AFCF7CFF8616814
:104040004A088018FCF7CAF801461039B94201D96C
:10405000012502E080B22168C8602046012140307D
:10406000418501850020206760672846F8BD000073
:10407000F369FFCFFFF4FF11003801404010024008
:10408000004400400024F400B6460008EFFF0000A2
:10409000F0B58165014640318A83CA8300230367F6
:1040A000012584682D03FF26AC4204D10469002C4D
:1040B00013D13F4C0AE07F27002C09D00126360798
:1040C000B4420CD10469002C05D03F240C8407E0D5
:1040D0000469002C01D00F8402E00E8400E00B8400
:1040E00004468034E3602226A660EFF31086B446CF
:1040F000012686F310880668B768B646012637435E
:104100007646B760664686F310880127466E7F07BD
:10411000BE4229D1098D914226D88168A94202D197
:10412000016900291ED02349016723700169002914
:104130000CD0EFF31081012282F31088026813681B
:10414000FF2401342343136081F31088EFF31081BF
:10415000012282F310880068826801231B071A433A
:10416000826021E01449DFE78168A94202D1016938
:1041700000290FD011490167237001690029EFF36D
:10418000108109D0012282F3108800680268FF23A1
:10419000213307E00A49EEE7012282F31088006824
:1041A000026820231A43026081F310880020F0BDCA
:1041B000FF0100009D3D0008653B0008F13C000840
:1041C000B93A000810B584210958212910D10146B7
:1041D0004031CA8A002A0CD0026D03681288D205C9
:1041E000D20D9A62026D921C0265C88A401EC88276
:1041F00010BDEFF31081012282F31088026813686A
:104200008024A343136081F31088EFF3108101220F
:1042100082F310880068026840231A43026081F329
:10422000108810BD10B584210958212919D10146E3
:1042300040314A8D13E0CB8A002B13D00368DC6930
:1042400024060AD5046D2488E405E40D9C62036D00
:104250009B1C0365CB8A5B1ECB82521E92B2002A46
:10426000E9D110BDEFF31081012282F310880268BA
:1042700093680124E405A343936081F31088EFF36E
:104280001081012282F310880068026840231A43DB
:10429000026081F3108810BD10B5842109582129CE
:1042A0000ED101464031CA8A002A0AD0026D036845
:1042B00012789A62026D521C0265C88A401EC8823A
:1042C00010BDEFF31081012282F310880268136899
:1042D0008024A343136081F31088EFF3108101223F
:1042E00082F310880068026840231A43026081F359
:1042F000108810BD10B584210958212917D1014615
:1043000040314A8D11E0CB8A002B11D00368DC6963
:10431000240608D5046D24789C62036D5B1C03653C
:10432000CB8A5B1ECB82521E92B2002AEBD110BD0B
:10433000EFF31081012282F3108802689368012450
:10434000E405A343936081F31088EFF31081012209
:1043500082F310880068026840231A43026081F3E8
:10436000108810BDFFB581B005461746044680355C
:104370000A9E54E0701C52D0FCF7F8FF0499401AD2
:10438000B0422FD8002E2DD020680168490746D5AD
:10439000C069C043000542D401202168C002086200
:1043A000EFF31080012181F3108821680B68FF2250
:1043B000A13293430B6080F31088EFF3108001214A
:1043C00081F3108821688A68520852008A6080F35D
:1043D000108820206860A860E86000202870032012
:1043E00005B0F0BDEFF31080012181F31088216842
:1043F0000A68FF23A1339A430A6080F31088EFF321
:104400001080012181F3108821688A6852085200C7
:104410008A6080F3108820206860A860DDE720684B
:10442000C1690298884304D00020B842A2D000207D
:10443000D6E70120F9E7000010B50B4AD07B092828
:1044400011D90A490878401C087000200849D07327
:104450000968082008620748406A044901220C31B3
:104460000348FFF715FE10BD840100200000002066
:10447000A80000200038014010B50248FDF760FE9A
:1044800010BD0000A800002010B50F48017B0129D5
:1044900018D1C1793B2915D90021C1714030027B67
:1044A000521C52B202733B2A0CDD0173C27A521CB9
:1044B00054B20246C472203A937C5B1C9374182C4D
:1044C00000DDC17210BD00006401002030B47446EC
:1044D000641E2578641CAB4200D21D46635D5B0000
:1044E000E31830BC184700008307FF22DB0E9A4018
:1044F0008907090E9940002808DB830809489B00BA
:104500001B18186890430843186070470007000F95
:104510000838830804489B001B18D8699043084357
:10452000D861704700E400E000ED00E070B50A4C8F
:10453000002365690949A26909684843A169914254
:10454000FCD0914201D2521A01E06E1AB218D3186F
:104550000A468342F2D370BD00E000E01400002060
:10456000FCF712FFFFF7A6F8FEF76CFBFEF7C8FB9F
:10457000FBF752FFFEF7FCFB1F48FDF7AFFB0122E4
:104580001E491F48FFF784FD1E48FFF789F80025E4
:104590001D4C0126E078002805D00128FAD1607D65
:1045A00001280DD012E07D20C000FCF7F3FDE0787B
:1045B000401CE070E07B401CE07365706671E9E7C9
:1045C0001148657520304673FBF762FF607801285B
:1045D00002D1FEF7F1F86071E07B012803D10220DF
:1045E000E073657066716079FEF738FCFEF748FE8F
:1045F000FFF722FFCEE700005C0000200C00002047
:10460000A800002089340008640100200A0A060E70
:104610000E0C0C0A0E0E00F000D09020B0F010F03E
:10462000B0000A0A060E0E0C0C0A0E0EF000D09016
:1046300020B0F010F0B00A0A060E0E0C0C0A0E0E96
:10464000F000D09020B0F010F0B00A0A060E0E0C68
:104650000C0A0E0EF000D09020B0F010F0B00A0A54
:10466000060E0E0C0C0A0E0EF000D09020B0F010CA
:10467000F0B0000A0A060E0E0C0C0A0E0E00F00036
:10468000D09020B0F010F0B0000A0A060E0E0C0C0C
:104690000A0E0E00F000D09020B0F010F0B0000A2A
:1046A0000A060E0E0C0C0A0E0E00F000D09020B080
:1046B000F010F0B000000100020004000600080045
:1046C0000A000C00100020004000800000010101E1
:1046D00001030701000008040204080101010000B1
:1046E00000000000000000000000000000000000CA
:1046F00000000000000000000000000000000000BA
:10470000010000000200000003000000040000009F
:10471000060000000700000008000000090000007B
:104720000000000000000000000000000000000089
:10473000010000000200000003000000040000006F
:1047400060470008000000205C0000000401000831
:10475000BC4700085C000020C407000020010008DE
:104760000000000000000000000000000000000049
:104770000000000000000000000000000000000039
:104780000000000000000000000000000000000029
:104790000000000000000000000000000000000019
:1047A0000000000000000000000000000100000008
:0C47B00004000000000000000024F400E1
:04000005080000C12E
:00000001FF
